:020000040800F2
:10000000D006002065010008C5120008791100081B
:1000100000000000000000000000000000000000E0
:10002000000000000000000000000000571F000852
:1000300000000000000000005918000841200008DE
:100040007701000877010008611A000877010008AD
:10005000770100087701000877010008610E0008A9
:100060007701000877010008770100087701000890
:100070007701000877010008770100087701000880
:1000800077010008770100080000000077010008F0
:100090007701000877010008770100087701000860
:1000A0007701000877010008770100087701000850
:1000B0007701000800000000770100080000000040
:1000C00000F002F800F03EF80CA030C80838241800
:1000D0002D18A246671EAB4654465D46AC4201D180
:1000E00000F030F87E460F3E0FCCB6460126334274
:1000F00000D0FB1AA246AB46334318474025000008
:1001000060250000103A02D378C878C1FAD85207A7
:1001100001D330C830C101D504680C6070470000BD
:100120000023002400250026103A01D378C1FBD813
:10013000520700D330C100D50B6070471FB51FBDFB
:1001400010B510BD00F064FC1146FFF7F7FF02F098
:10015000E1F800F07CFC03B4FFF7F2FF03BC00F011
:10016000B1FC00000748804707480047FEE7FEE76C
:10017000FEE7FEE7FEE7FEE704480549054A064BB1
:100180007047000045200008C1000008D000002092
:10019000D0060020D0020020D00200200022030957
:1001A0008B422CD3030A8B4211D300239C464EE092
:1001B00003460B433CD4002243088B4231D303094E
:1001C0008B421CD3030A8B4201D394463FE0C30900
:1001D0008B4201D3CB01C01A524183098B4201D318
:1001E0008B01C01A524143098B4201D34B01C01A03
:1001F000524103098B4201D30B01C01A5241C3087B
:100200008B4201D3CB00C01A524183088B4201D3E9
:100210008B00C01A524143088B4201D34B00C01AD5
:100220005241411A00D201465241104670475DE0EA
:10023000CA0F00D04942031000D34042534000226D
:100240009C4603098B422DD3030A8B4212D3FC2216
:10025000890112BA030A8B420CD3890192118B4295
:1002600008D3890192118B4204D389013AD09211AB
:1002700000E08909C3098B4201D3CB01C01A524166
:1002800083098B4201D38B01C01A524143098B422F
:1002900001D34B01C01A524103098B4201D30B0118
:1002A000C01A5241C3088B4201D3CB00C01A52413D
:1002B00083088B4201D38B00C01A5241D9D2430824
:1002C0008B4201D34B00C01A5241411A00D2014661
:1002D000634652415B10104601D34042002B00D5CB
:1002E0004942704763465B1000D3404201B500208D
:1002F000C046C04602BD704770477047F0B50C4617
:10030000871A9C410D46861A9D4103D2C01BA1410C
:10031000D21963410D0D1F0DC94EEC1BAE435CD0CD
:100320007F057F0D0026002F51D02D05AC46A94337
:10033000DD020123ED0A1B051D4320231B1B24D4D2
:100340001746E740381871412F46E740CC199D40C9
:100350002818314661410C0D27D161449A4013D5CC
:100360000023401C594152000ED140084000012298
:100370004B005205D34207D305204007C14201D5A7
:10038000B04900E0B0493046F0BD6B00002A00D013
:1003900001229A181F23203C1B1B01D5002302E0D9
:1003A000E540281871410C0DD7D001242405091906
:1003B000C407CD0740084908E40F28436144002CD6
:1003C000D5D00024401C61419A40D0D1CDE76A05C8
:1003D000520DD9D1C90FC907D5E79C4D4E00002851
:1003E00001D0012400E0002434195F00002A01D06C
:1003F000012600E00026BE19954FAC420CD8AE4253
:100400000AD8B44206D001256D05EC42BCD0104696
:100410001946F0BD9942FCD000203946F0BDF0B538
:100420001FB40C460F46811A9F412546861A9D41EE
:1004300006D20125ED076F40401ABC4152187B419E
:10044000210D1E0D8D1BAC467D4D8D437ED0750557
:100450006D0D7CD00D05AE46AC431B031B0B794DD7
:1004600052429D41202366469B1B14D31746F740FA
:10047000381800260090744160462F460741E41961
:1004800000989D402818664116D4714671189A400C
:1004900025D5012320E093182A466A415200002BFB
:1004A00000D0521C1E23203E9B1B002B61DD3541DA
:1004B000EE1728186641E8D5001876415B1C9A4073
:1004C00000D3401C4B05F3181524E34010D3002B38
:1004D00052D071467118D30FC01802D3491C05B011
:1004E000F0BD0123DB079A42F9D140084000F6E74E
:1004F00001225205B21801D1002853D00123CC0AA1
:10050000DB029943891E002A08D1020C03D0020C99
:100510000004103902E00246002020390023550B68
:1005200005D112020823550B01D152010D23550CA0
:1005300001D112011B1DD50C01D192009B1C150D80
:1005400001D152005B1C2025EE1A01E02CE022E0D4
:100550000546F54015439840CA1AE1076918130586
:10056000C918002ABBDA032040070818C10FC907C1
:100570000FE071466118B2E7F107400808437110B7
:1005800071444A000CD001235B059A42A7D2C90FDF
:10059000C9070020A3E74905490D26D1002001E045
:1005A0000028F4D100219AE7284D6600002801D0E8
:1005B000012100E0002171185F00002A01D001260E
:1005C00000E00026BE19224FA94210D8AE420ED834
:1005D000B14208D001256D05E94206D01946A802AE
:1005E000414010467BE79C4201D0214677E700203E
:1005F000394674E710B50C465C4005D50124E40784
:100600006340FFF70CFF10BDFFF778FE10BD30B45C
:100610000C465C4004D50124E407634030BC6DE621
:1006200030BCFCE670B50124E40761400D465D4036
:1006300002D4FFF763FE70BD6340FFF7F0FE70BDAC
:10064000FF0700000000F0FF0000F07F0000E0FF67
:100650000000F87F0346CA02400D10B510430A158A
:1006600004D00124E4072043002A05DB0A4CA21A27
:1006700004D4D040FF2A00DD002010BD4A00002B2A
:1006800001D0012000E00020101801225205D042C4
:10069000F2D8C817C04310BD1E0400001F22030C6F
:1006A00002D10F22000402D0030E03D004E0002088
:1006B000014670470002083A030F01D10001121FE2
:1006C000830F01D18000921E002801DB4000521EE2
:1006D000120551184205C012411810467047C10F4B
:1006E000C90700D04042012292071143D6E70121F9
:1006F0008907D3E7F0B58B4C0F09254689B0BD4378
:100700007BD01D092646AE43FAD00E465E402740F8
:10071000F60F3E43254071D024012142FBD0FF2437
:10072000AD19A4042D1B039501252D05DB02DB0A61
:10073000C9022B43C90A29431E010901040F130FE3
:10074000050121431701880B820391432D098C4633
:10075000A90B1E438A039543B30B9A0396433F09A3
:10076000BA0B9403A74302962E467E430497B646DF
:100770004E19D7190C460196544305977E43371BF3
:100780007646BF1B3601B646BE0B36190096764636
:10079000BC043719009C01D3641C00946400002F32
:1007A00001D001263443029E049F754366467E4372
:1007B0000496760034196E0034190094029C019E50
:1007C0001C196643751BAE46069465464519059C83
:1007D00005956C43594375460891691A0191049E29
:1007E00001465143A41B0491611A009C0791E10644
:1007F00005D061090122114302E072E06EE0610957
:10080000089D00272C0A2D066918049D7C412A0AA0
:100810002D066918019D6241AC0DAD026D18544161
:10082000079A910D920255196141029A6446584304
:100830005443069B059A5A43121A131B9A0E9B01A6
:100840005B187A41010B0005C3185141220A2006AA
:1008500044195A419A4200D2491C01204002814267
:1008600003D315230226F64302E014230326F6439E
:100870002020C51AA9401746AF40DA400A43204657
:100880000399D8400914731819055118039A38436D
:10089000D2075140AC4009D00122944006D3002237
:1008A000401C5141002C01D1400840001E4A934297
:1008B00012D3012203989206904207DB05204007DD
:1008C00009181A480143C012414004E003204007C0
:1008D0000818C10FC907002009B0F0BD0020F107BA
:1008E000FAE705180C464C4111486D42A04115D35A
:1008F00094181A465A410E48644290410ED3012082
:100900004A004005824209D35A00824206D3594028
:10091000C90F084AC90700201143DDE70020064936
:10092000DAE700000000FF07FE070000FFFFFF7F7F
:100930000000E0FF0000F07F0000F87FF8B5224CD7
:100940004E00069DA6420AD8A64201D1002806D133
:100950005E00A64203D8A6420AD1002A08D00D2480
:10096000240425422CD02946002000F02FF8F8BDA1
:100970000C461C430CD4994202D0EFF30080F8BD22
:10098000904202D0EFF30080F8BDEFF30080F8BD95
:1009900009242407E5008B4206D0EFF30080A04332
:1009A000591A06D2284304E0101A05D3EFF3008049
:1009B000A04380F30088F8BDEFF30080A043F1E787
:1009C000009500F01BF8F8BD0000E0FFC80212D54A
:1009D0004803400F002804D0C803C04301218840C9
:1009E0007047EFF300800001000903210907084365
:1009F00080F30088704700207047000010B5002089
:100A00000249029A00F02BF810BD00000000F87FA8
:100A1000754600F053F8AE46050069465346C008D7
:100A2000C000854618B020B5FFF7A6FB60BC0027C4
:100A30004908B6460026C0C5C0C5C0C5C0C5C0C5AA
:100A4000C0C5C0C5C0C5403D49008D46704710B502
:100A50000446C046C0462046FFF77DFB10BD10B5DA
:100A60000C461107090F092904D00A290AD00829C0
:100A70000CD104E011460820FFF7A8FF06E051065C
:100A800006D501E0510601D50120C007214610BD61
:100A9000D10607D501010909CC084907000E000657
:100AA000044309E0410F20024907000A0143200ED8
:100AB00000061D22D14101430846E7E70048704780
:100AC0007000002001491820ABBEFEE7260002009E
:100AD0007047000000B593B00121480400F0DAFE31
:100AE0000121480200F0E6FE0121084600F0D2FE96
:100AF00011201190032110A8017211A90920C0062C
:100B000000F088FA2B4800F08BF82B4800F0A6FE86
:100B10002A4800F02FF927484030009028480190DB
:100B20000020029002200390002004908020059075
:100B30004000069080000790202008900002099055
:100B400000200A9069461D4800F064F901211B4805
:100B500000F002F90221174800F05AF80121154867
:100B600000F04AF80BA800F0BCF800200B9001211F
:100B700008A8017400200D900F9010900BA90D484B
:100B800000F094F8062211210A4800F01DF80948E7
:100B900000F056F80121074800F022F800BF09498B
:100BA000044800F06BF80028F9D0024800F094F8EF
:100BB00013B000BD002401400040000108000240C5
:100BC0000C0000200100000110B50B460021846AD2
:100BD0001C43846200BF0C4614432146416110BD92
:100BE000002904D0826801231A43826003E08268EE
:100BF00002231A4382607047002904D0C26801238F
:100C00001A43C26003E0C26852085200C2607047D3
:100C1000C26802239A43C260C2680A43C260704736
:100C200010B504460548844207D10121401500F063
:100C300051FE0021601500F04DFE10BD0024014062
:100C400030B501460020002200238C680125ED0705
:100C50002C438C6000BF8C68E30FDB07521C0F2411
:100C60002403A24201D0002BF5D18C68E40FE407E5
:100C7000002C01D1086C00E0002030BD30B50246E8
:100C800000200023012424060C40002C05D0946889
:100C900001252D06AC43234600E013681C460C409A
:100CA000002C01D0012000E0002030BD10B5002252
:100CB000C268084B1A400C7964030B6823438C68A4
:100CC0002343CC6823430C6923434C6923431A43D1
:100CD000C26010BD03D2FFFF81680422114381600E
:100CE00070470021016001718160C1600161416153
:100CF000704700001448007864280BDA1348007825
:100D0000134909684018124908600F480078401CD0
:100D10000D4908700C480078642813DB0C48006803
:100D2000FF21F531884206D9084800788021084320
:100D30000649087003E0054800780449087001205E
:100D40000449087070470000440000201C00002087
:100D50004800002030000020002904D00268012350
:100D60001A43026003E00268014B1A4002607047B8
:100D7000FEFF00000168254A11400160002101606A
:100D800041608160C1602249884208D12049083908
:100D900049680F2211431E4A083A516035E01C4948
:100DA0001431884208D11A4908394968F0221143A0
:100DB000174A083A516028E015492831884209D17C
:100DC0001349083949680F2212021143104A083AA0
:100DD00051601AE00E493C31884209D10C4908396A
:100DE00049680F2212031143094A083A51600CE086
:100DF00007495031884208D10549083949680F220E
:100E000012041143024A083A51607047FEFF000085
:100E10000800024010B5002202680D4B1A400C6A0F
:100E20008B6823430C6923434C6923438C69234318
:100E3000CC6923434C6A23438C6A23431A430260E0
:100E4000CB6843600B6883604B68C36010BD0000D3
:100E50000F80FFFF00E0401E0028FCD1704700001B
:100E600010B50120800200F011F8002805D0012003
:100E700002490870800200F003F810BD0000002055
:100E8000014948617047000000040140014600200C
:100E90000022074B1B680B401A46054B5B690B4051
:100EA000002B03D0002A01D0012000E00020704771
:100EB000000401400149C860704700000020024062
:100EC00030B5044604250B20000400F08FF80546D9
:100ED000042D17D10C480069022108430A49086112
:100EE00008464461006940210843074908610B2016
:100EF000000400F07BF8054603480069022188439E
:100F000001490861284630BD0020024004200D49F7
:100F1000C968C907C90F002901D0012010E009499B
:100F2000C96810221140002901D0022008E00549BB
:100F3000C96804221140002901D0032000E00420E8
:100F400070470000002002400348006980210843E8
:100F500001490861704700000020024078B506464C
:100F60000C460425002000900B20000400F03EF801
:100F70000546042D24D11348006901210843114975
:100F8000086134800B20000400F030F80546042D81
:100F900010D1B01C0090200C009908800B20000498
:100FA00000F024F80546074800694008400005495C
:100FB000086105E0034800694008400001490861F4
:100FC000284678BD0020024005480069802108407D
:100FD000002804D00348024948600348486070472D
:100FE0000020024023016745AB89EFCD10B50346D1
:100FF0000424FFF78BFF044603E0FFF787FF044656
:101000005B1E012C01D1002BF7D1002B00D1052450
:10101000204610BDF0B50A4600210023002400BF81
:101020003DE001258D402B4615681D402C469C4215
:1010300034D11579012D02D01579022D16D185688C
:101040004F000326BE40B543856055794E00B5403C
:10105000866835438560858801268E40B543858046
:10106000858896798E40B6B23543858005684F00F5
:101070000326BE40B543056015794E00B5400668AD
:1010800035430560C5684F000326BE40B543C560C3
:10109000D5794E00B540C6683543C560491C102956
:1010A000BFD3F0BDF0B5002300244D07EE0E15466A
:1010B000B5402B46CD10AE0005462035AD594E0744
:1010C000F70E0F26BE40B543CE10B60007462037B8
:1010D000BD51CD10AE003D46AD591D432C46CD103F
:1010E000AD003E467451F0BD02460020138A0B400D
:1010F000002B01D0012000E00020704701857047DF
:10110000816170471248007B124908701048407B8B
:1011100048700F48807B88700D48C07BC8700C48B1
:10112000007C08710A48407C48710948807C8871BD
:101130000748C07CC8710648007D08720448407D9D
:1011400048720348807D88720148C07DC87270472C
:10115000A0F7FF1F640000200548007805490870CB
:1011600003488078487002484079887070470000D2
:10117000640000201600002000BFFEE71CB501211E
:101180000320400400F086FB0E48009000216846D2
:101190000171022141710121C17169460920C00616
:1011A000FFF738FF0120C00300900021684601715D
:1011B000022141710121C17169460348FFF72AFFED
:1011C0001CBD0000021900000004004810B50024F6
:1011D0000121C9020920C006FFF786FF002801D1BE
:1011E00001200443012109030920C006FFF77CFF09
:1011F000002801D1022004430121C9030D48FFF753
:1012000073FF002801D104200443FF21013109208C
:10121000C006FFF769FF002801D10820044302211E
:101220000920C006FFF760FF002801D11020044309
:10123000204610BD0004004810B5012149030248B2
:10124000FFF75EFF10BD0000000800481CB501213B
:10125000C80400F01FFB01204003009001216846F4
:101260000171002181710321417169460448FFF732
:10127000D1FE012149030248FFF742FF1CBD0000D7
:101280000008004810B5012149030248FFF736FF66
:1012900010BD0000000800481CB50121880500F0C1
:1012A000F9FA802000900021684601710221417105
:1012B0000021C17169460248FFF7ACFE1CBD000069
:1012C00000140048704700001FB515A103C9039121
:1012D0000290002000900190052202A9302000F029
:1012E00033F905226946102000F064F8684600785A
:1012F000112812D16846407822280ED1684680789D
:1013000033280AD16846C078442806D16846007957
:10131000552802D1002004B010BD0120FBE70000D9
:10132000112233445500000010B540211D48FFF73D
:10133000E5FE2021312000F027F9FF21E22000F016
:1013400023F9194800781949087117480078184995
:10135000087105221549302000F0F6F805221449DD
:101360002A2000F0F1F80121212000F00DF90121DF
:10137000222000F009F91A21242000F005F90A487A
:101380000178252000F000F92721262000F0FCF844
:101390000F21202000F0F8F840210248FFF7B0FEAE
:1013A00010BD0000000400484C0000200100002097
:1013B00006000020F8B507460D4616460121C90370
:1013C0000920C006FFF79AFE384600F095FD009010
:1013D000002405E0FF2000F08FFD2855601CC4B2FA
:1013E000B442F7DB0121C9030920C006FFF788FEDC
:1013F0000098F8BD70B504460121C9030920C00654
:10140000FFF77CFE204600F077FDFF2000F074FD22
:1014100005460121C9030920C006FFF771FE2846D1
:1014200070BD70B504460720FFF7E4FF0546294666
:10143000272000F0A9F84020284000280AD02022C8
:1014400021466120FFF7B6FFFF21E22000F09CF863
:10145000002070BD0120FCE710B540211D48FFF7BA
:101460004DFE2021312000F08FF8FF21E22000F016
:101470008BF81948007819490871174800781849FD
:10148000087105221549302000F05EF80522144944
:101490002A2000F059F80121212000F075F80121DF
:1014A000222000F071F81A21242000F06DF80A487B
:1014B0000178252000F068F82721262000F064F844
:1014C0000E21202000F060F840210248FFF718FEAE
:1014D00010BD0000000400484C0000200100002066
:1014E0000600002070B5054640211648FFF706FEAD
:1014F00020222946A02000F027F840211148FFF7BC
:10150000FFFD00BF80210F48FFF7EEFD0028F9D155
:101510000720FFF76FFF04462146272000F034F82C
:10152000FF21E12000F030F810202040002801D0F9
:10153000102070BD20202040002801D02020F8E796
:10154000FF20F6E700040048F8B507460C461546AC
:101550000121C9030920C006FFF7D0FD384600F07D
:10156000CBFC0090002605E02078641C00F0C4FC51
:10157000701CC6B2AE42F7DB0121C9030920C006C8
:10158000FFF7BEFD0098F8BD70B505460C46012179
:10159000C9030920C006FFF7B1FD284600F0ACFCE6
:1015A0000646204600F0A8FC0121C9030920C00618
:1015B000FFF7A6FD304670BDFEB5FFF763FE0020C5
:1015C0009F4908709F484078802807DA9D488078B6
:1015D000802803DA02209C49088022E0994840785C
:1015E000802807DB97488078802803DA0120964915
:1015F000088016E093484078802807DA9148807880
:10160000802803DB0320904908800AE08D48407859
:10161000802806DB8B488078802802DB04208A49FA
:10162000088088490878C117C90E0918491149016D
:10163000411A844A117011464878FFF758F8002281
:10164000824B0191009000F0C5FF0AD27D49487895
:10165000FFF74DF800227D4B01910090FEF7D7FF78
:1016600009E078494878FFF742F80022774B01916A
:101670000090FEF7D7FF0646754A764BFFF73AF81B
:101680000446FEF7E7FF6F4948708878FFF72FF8A8
:1016900000226E4B0191009000F09CFF0AD2694934
:1016A0008878FFF724F80022684B01910090FEF73C
:1016B000AEFF09E063498878FFF719F80022634B11
:1016C00001910090FEF7AEFF0646614A614BFFF7BD
:1016D00011F80446FEF7BEFF5A4988705A48008840
:1016E00002281BD108468078497888420CDB55488F
:1016F00080785549488053488078FE21081A52491D
:1017000088800120088073E04E4840784E49488028
:101710004C48407888800320088069E04A48008867
:10172000012821D1474880784649497888420CDB16
:10173000444880784449488042488078FE21081A0D
:10174000414988800120088052E03E484078FE21CF
:10175000081A3D4948803B484078FE21081A3A491A
:1017600088800420088043E03748008803281BD184
:10177000344880783349497888420BDB3148807897
:10178000FE21081A304948802E488078888002203F
:1017900008802DE02B4840782B4948802948407824
:1017A00088800320088023E02748008804281FD170
:1017B000244880782349497888420BDB2148807887
:1017C000FE21081A204948801E488078888002201F
:1017D00008800DE01B484078FE21081A1A4948800D
:1017E00018484078FE21081A17498880042008808C
:1017F00014484078322808DC12488078322804DC0B
:10180000002011494880888008800E4800780E49E1
:101810000978490108430B49C8700B488078087162
:101820000948007948710A20087003204870FC209C
:1018300088700D2088710721024800F079FCFEBDF8
:10184000410000201F0000202A00002000E05F402F
:10185000D7A3703D0AD7FF3F704700000C49496885
:101860000122920391430A4A51601146496882B2AB
:101870001143074A51601146096B92159143044A7E
:1018800011631146096B020C1143014A1163704741
:1018900000100240002905D0054A52690243044B5A
:1018A0005A6104E0024A52698243014B5A6170470F
:1018B00000100240002905D0054A92690243044BFA
:1018C0009A6104E0024A92698243014B9A6170472F
:1018D00000100240002905D0054AD2680243044B9B
:1018E000DA6004E0024AD2688243014BDA60704752
:1018F00000100240FEB5044600250026002001909D
:1019000000900027504840680C2108400546002DF3
:1019100004D0042D05D0082D28D105E04B482060C7
:1019200027E04A48206024E0474840680F218904A6
:1019300008400646444840680321C9030840019016
:10194000B00C861C0198002803D1414870432060E8
:101950000BE03D48C06A0007000F401C00903B4868
:101960000099FEF71BFC7043206002E037482060BE
:1019700000BF00BF34484068F021084005462D09EB
:101980003448475D2068F84060602F484068072170
:101990000902084005462D0A2E48475D6068F84058
:1019A000A0602948006BFF2101310840884202D025
:1019B0002948E0600DE0244840680121890308407F
:1019C000884203D0A0684008E06002E0A068800878
:1019D000E0601D48006B40210840402802D01F48AD
:1019E000206102E00120C00320611748006B102134
:1019F0000840102802D01548606101E0206860614D
:101A00001148006B8007800F002802D1A068A061F8
:101A100019E00D48006B8007800F012802D1206873
:101A2000A06110E00848006B8007800F022802D1F7
:101A30008003A06107E00448006B8007800F032843
:101A400001D10248A061FEBD0010024000127A00E0
:101A500000093D0054000020809FD5001280000046
:101A60007047000010B5FFF75FFC1AE02248FFF74F
:101A7000D8FC002815D1214800781F490978401862
:101A80001E490870084640781B49497840181B4990
:101A90004870084680781849897840181749887036
:101AA00000E0E3E700BFFFF7EDFB7D20C000FFF79C
:101AB000D1F9FFF7D1FC05E01048FFF713FD20280E
:101AC00000D100E0F8E700BFFFF7B6FB0B4909784B
:101AD0000A4A52788918094A927888186421FEF7D0
:101AE00067FBC8B2064908700846017805480068D7
:101AF00000F0F4FB10BD00001900002016000020CB
:101B00004C0000203C00002001468A00014B1B686D
:101B10009858704750000020FEB5FFF7B3FB002037
:101B20008A4908708A484078802807DA884880788F
:101B3000802803DA02208749088022E08448407820
:101B4000802807DB82488078802803DA01208149D9
:101B5000088016E07E484078802807DA7C48807844
:101B6000802803DB03207B4908800AE0784840781E
:101B7000802806DB76488078802802DB04207549BF
:101B8000088073490878C117C90E0918491149011D
:101B9000411A6F4A1170104640786F4948701046DC
:101BA0008078887011464878FEF7A1FD00226B4BC3
:101BB0000191009000F00EFD0AD265494878FEF7C9
:101BC00096FD0022654B01910090FEF720FD09E093
:101BD0005F494878FEF78BFD0022604B0191009031
:101BE000FEF720FD06465E4A5E4BFEF783FD044687
:101BF000FEF730FD564948708878FEF778FD0022E0
:101C0000564B0191009000F0E5FC0AD250498878CB
:101C1000FEF76DFD0022514B01910090FEF7F7FC9D
:101C200009E04B498878FEF762FD00224B4B019199
:101C30000090FEF7F7FC0646494A4A4BFEF75AFD6C
:101C40000446FEF707FD4249887042480088022892
:101C50000CD1084680784978884203DB01203D4951
:101C6000088038E003203B49088034E03948008888
:101C700001280DD13648807835494978884203DB00
:101C800001203449088026E004203249088022E0FF
:101C90003048008803280DD12D4880782C49497898
:101CA000884203DB02202B49088014E003202949E5
:101CB000088010E02748008804280CD12448807848
:101CC00023494978884203DB02202249088002E048
:101CD0000420204908801E484078322806DC1C4831
:101CE0008078322802DC00201A49088018490878D8
:101CF000C117C90E091849114901411A154A12782C
:101D000052011143124AD17013488078114608716C
:101D100011484078487108460079FE2801DBFD2013
:101D200048700B484079FE2802DBFD200849887086
:101D30000A200749087003204870FC2088700D2095
:101D400088710721024800F0F3F9FEBD4100002030
:101D50001F0000202A0000202600002000E05F4035
:101D6000D7A3703D0AD7FF3F002904D00288402343
:101D70001A43028003E00288014B1A400280704738
:101D8000BFFF00000246002013890B40002B01D04A
:101D9000012000E00020704710B500220288C12316
:101DA0009B011A400B88CC892343CC8823430C89A0
:101DB00023434C8923438C8923431A43028082881E
:101DC000084B1A408B881A4382800B8A0382028850
:101DD000054B1A404B881A430280838B034C2340E7
:101DE000838310BDFFF00000FBFF0000FFF7000041
:101DF00000B587B0012107204004FFF74BFD01210A
:101E00000803FFF757FD4020059001216846017641
:101E100000218176022141760121C17605A934484D
:101E2000FFF7F8F80120C00305900121684601760C
:101E300000218176022141760121C17605A9092080
:101E4000C006FFF7E7F8802005900021684601767C
:101E50000121C1760221417605A92548FFF7DAF86C
:101E60003820059002216846017600218176032101
:101E700041760121C17605A91D48FFF7CBF8002264
:101E800003211B48FFF70EF9002204211848FFF731
:101E900009F9002205211648FFF704F90121C903B9
:101EA0000920C006FFF72CF9002168460180FF21B8
:101EB000053141800721090281800021C180018113
:101EC000012149024181102181810021C181072125
:101ED000018269460748FFF75FFF012109030548B2
:101EE00000F02AF801210348FFF73EFF07B000BDCC
:101EF000000400480030014010B5044600BF022134
:101F00000948FFF73FFF0028F9D02146064800F0B6
:101F10001DF800BF01210448FFF734FF0028F9D065
:101F2000014800F003F810BD0030014001460022D6
:101F30000A460C32107870478288034B1A40828020
:101F400082880A4382807047FFEF00000022024629
:101F50000C321170704770470CB500200190009052
:101F6000354800680121090408433349086000BF6F
:101F70003148006801214904084000900198401C44
:101F800001900098002804D1052109030198884296
:101F9000EED129480068012149040840002802D0F8
:101FA0000120009001E0002000900098012842D11B
:101FB000224800681021084320490860084600684C
:101FC000012108431D4908601B4840681A494860C0
:101FD000084640684860084640687F21C903884336
:101FE0001549486008464068112109040843124910
:101FF0004860084600680121090608430E49086048
:1020000000BF0D4800680121490608400028F8D0AB
:1020100009484068800880000749486008464068D1
:10202000022108430449486000BF034840680C216E
:1020300008400828F9D10CBD0010024000200240E1
:102040007047000010B51B4800680121084319497A
:102050000860084640681849084016494860084624
:1020600000681649084013490860084600680121C5
:10207000890488430F490860084640683F210904E5
:1020800088430C4948600846C06A00090001C862DC
:102090000846006BFF21543188430649086308460F
:1020A000406B40084000486300208860FFF754FF01
:1020B00010BD0000001002400CB8FFF8FFFFF6FE54
:1020C00010B5FFF7C9F905E01548FFF70BFA20280E
:1020D00000D100E0F8E700BFFFF7D4F8FFF724F9DC
:1020E00005E01048FFF79DF9002800D100E0F8E76F
:1020F00000BFFFF7A1F80B4909780A4A52788918FE
:10210000084A927888186421FEF752F8C8B2064946
:102110000870084601780548006800F0DFF810BD37
:1021200016000020190000204C0000203C00002078
:102130000CE000BF074AD26980231A40002AF9D078
:102140000278044B20331A81401C491E0029F0D12B
:102150007047000000380140002904D002680123C4
:102160001A43026003E0026852085200026070479E
:1021700000B589B001214804FFF78CFB01218803D9
:10218000FFF798FB01220921C806FEF78BFF012209
:102190000A210920C006FEF785FF032040020790B0
:1021A000022108A80170002181700121C170032162
:1021B000417007A90920C006FEF72CFFE12040026C
:1021C0000190002002900390049006900C2005904E
:1021D00001A9044800F008F801210248FFF7BCFFFC
:1021E00009B000BD00380140F0B589B005460E4683
:1021F00000240020089000BF00BF2868400840006D
:1022000028606C6803210903204688430446B068AF
:1022100004436C602C682F480440F16870680843E0
:102220003169084304432C60AC680321090220464D
:102230008843044670690443AC606846FFF75AFB64
:102240002548854202D10698089001E0029808903E
:1022500028680121C9030840002809D032685100CC
:102260001923089A5A431046FDF798FF074608E0DD
:10227000326891001923089A5A431046FDF78EFFE1
:10228000074664213846FDF789FF040120096421CF
:102290004843381A079028680121C90308400028DC
:1022A0000AD00799C900084632306421FDF776FF4D
:1022B0004007400F044309E00799090108463230FE
:1022C0006421FDF76BFF0007000F0443AC8109B0E8
:1022D000F0BD0000F3E9FFFF0038014070B504468F
:1022E0000D46FEF771FE3520FEF7E4FD0848006854
:1022F000FEF7E6FDA100064A126888182946FEF797
:102300002DFE3520FEF7D6FDFEF71EFE70BD000047
:1023100050000020FFF796FEFEF7DCFBFEF796FF6D
:10232000FEF78AFFFEF7EEFEFEF716FF99490988D1
:1023300088B2FFF7E9FB984908606420FEF78AFD40
:10234000FEF7AAFF80219548FEF7CEFE00287CD13B
:10235000FFF74EFD00BFFEF7B7FF0028FBD18E4808
:102360000068401C002802D1FFF77CFB03E08A488C
:1023700000788B490870FEF7D7FFFFF7F9FE6BE096
:1023800088494888C117090F09180905090E864AA6
:10239000117084490888C117090F09180905090E29
:1023A000824A11708248FFF73CF8002818D1804813
:1023B0000078802805DAFFF7FFF801207D490870D2
:1023C0004AE07B480078802846DB794800788038EE
:1023D00077490870FFF7A0FB0220764908703BE0C0
:1023E00075480078401C7449087008460078FE283B
:1023F00017DB70480078012813D10A206C49087057
:1024000003204870FC2088700020C8700871487153
:102410000D208871FEF710FF07216548FFF788FE41
:102420001AE065480078FE2816DB6248007802282A
:1024300012D10A205E49087003204870FC20887081
:102440000020C8700D20887100E006E0FEF7F4FE61
:1024500007215748FFF76CFE92E752494888C11799
:10246000090F09180905090E544A11704D490888C9
:10247000C117090F09180905090E514A1170FFF714
:10248000B7FC00BFFEF720FF0028FBD142480068E0
:10249000401C002802D1FFF713FE03E03E480078FD
:1024A0003F490870FEF7D8FFFEF768FE71E03D492E
:1024B0004888C117090F09180905090E3A4A117011
:1024C00038490888C117090F09180905090E374A44
:1024D00011703548007839490978884205DD32485D
:1024E000007836490978401A04E0344800782E49CB
:1024F0000978401A334908702C4800783049097827
:10250000884205DD294800782D490978401A04E001
:102510002B48007825490978401A2B490870FEF7A6
:1025200055FE2A4908702048007848701F480078F6
:102530008870FEF7DFFB25490878C117490E091896
:10254000C911C901411A07D11E4909780F2903DCB5
:102550001D4909780F290EDD1D49097801290AD185
:102560001A48FEF7BFFFFEF78DFE002012490870E3
:10257000174908700DE010480078401C0E4908709B
:1025800008460078C82804DBFEF756FE00201049F4
:1025900008708CE73C000020380000200014004840
:1025A0004C0000200C000020100000201100002032
:1025B0001F000020310000204100002012000020F8
:1025C0001300002014000020150000201C00002033
:1025D0003000002070B501251C002D050C4310D4DF
:1025E000EC4206D4AC420AD48B4200D070BD824289
:1025F00070BDEB4217D4E94215D48B4270BD9B42AB
:1026000070BDEC4206D5AC42F9D5994200D070BD00
:10261000904270BD6D005C00EC4204D24C00EC4274
:1026200001D2994270BD0FB4034C0CBC03BC30B452
:10263000FEF784F930BC70BD190016045C26000852
:10264000000000206400000004010008C02600080B
:10265000640000206C060000200100080068866607
:1026600088286886668828000000000000000000B6
:10267000000000000000000000000000000000005A
:10268000000000000000000000000000000000004A
:10269000000000000000000000000000000000003A
:1026A00000000000000000007D0000000080000825
:1026B00000000000010203040102030406070809E8
:04000005080000C12E
:00000001FF
